:020000040000FA
:060000000A128A11122809
:10000800FE00030EF4000408F5000A08F600831247
:1000180003137F08F7000A128A11142B0A128A1197
:1000280015288313EF30FD000530FE002A30FF004D
:10003800DB3084000A128A1142250A128A116D30B7
:10004800FD000530FE006430FF005B3084000A12BA
:100058008A1142250A128A11A0308400DB300A1264
:100068008A11EF250A128A11433084005B300A1284
:100078008A11EF250A128A11F801F901FA01FB0128
:10008800FC01FD0183010A128A1171294A28FF0027
:1000980000308A007F08820750280A128A11882DAA
:1000A8000A128A110F2D0A128A11992D0A128A1121
:1000B800762D83120313A300A201ED01ED0A530864
:1000C800031D672868289E287D2883160313850149
:1000D8009928831603138601992883160313870129
:1000E8009928831603138801992883160313890115
:1000F80099282308840083130008A000A10121087F
:10010800003A0319882899282008003A0319692811
:10011800013A03196D28033A03197128013A0319A2
:100128007528073A0319792899280130FF007F08B4
:100138008312D3072308840083130008031DA5280E
:10014800A628AF282308033E84000008FF007F0884
:10015800831603139F04831223080319B428B528B0
:100168006C295A292308023E84000008FF007F08F2
:1001780083160313850470292308023E84000008AF
:10018800FF007F0883160313860470292308023EA4
:1001980084000008FF007F08831603138704702972
:1001A8002308023E84000008FF007F08831603131B
:1001B800880470292308023E84000008FF007F0895
:1001C80083160313890470290F30FF007F08A207E4
:1001D8007029230884000008A000A1012108003A22
:1001E8000319F728E8282008003A0319B628013A25
:1001F8000319C028033A0319CA28013A0319D42855
:10020800073A0319DE28E8282308023E840000097B
:10021800FF007F0883160313850570292308023E13
:1002280084000009FF007F088316031386057029E0
:100238002308023E84000009FF007F088316031389
:10024800870570292308023E84000009FF007F0803
:1002580083160313880570292308023E84000009C9
:10026800FF007F088316031389057029230884007B
:100278000008A000A1012108003A03194429E82830
:100288002008003A03190829013A03191229033AE8
:1002980003191C29013A03192629073A0319302999
:1002A800E8281330FF007F08A2077029230A84007A
:1002B8000008A000A1012108003A03196429552962
:1002C8002008003A0319ED28FF3A03193A2955295D
:1002D8001130FF007F08A207080064300A128A1153
:1002E800B2220A128A11203083120313C10000308F
:1002F800C2000430FF007F08C0002030A100003099
:10030800A2000430FF007F08A3000A128A11B32458
:100318000A128A110130FF007F0883120313C007F5
:100328000130C1070318C20A0030C2074208A20000
:100338004108A1004008FF007F08A3000A128A11A3
:10034800B3240A128A110130FF007F0883120313B5
:10035800C0070130C1070318C20A0030C2074208AB
:10036800A2004108A1004008FF007F08A3000A126C
:100378008A11B3240A128A11003083120313A300CE
:100388000030A2000030A1000A30A0000A128A1131
:10039800FC230A128A11203083120313C100003093
:1003A800C200831603138801203083120313A100AF
:1003B8000030A2000A128A116B230A128A11FF0068
:1003C8007F088312031388000130C1070318C20A8B
:1003D8000030C2070030A3000030A2000330A100A3
:1003E800E830A0000A128A11FC230A128A1183122B
:1003F80003134208A2004108A1000A128A116B23C4
:100408000A128A11FF007F08831203138800013043
:10041800C1070318C20A0030C2070030A300003029
:10042800A2000330A100E830A0000A128A11FC23C0
:100438000A128A11831203134208A2004108A1007C
:100448000A128A116B230A128A11FF007F0883128D
:10045800031388000030A3000030A2000330A1007D
:10046800E830A0000A128A11FC230A128A110A1223
:100478008A1178240A128A11831203132B08CD00DB
:100488002A08CC003B2A0A128A111228003083124B
:100498000313B9000030B8000030B7000030B600D0
:1004A80030082F042E042D0403195B2A5C2AA92A7C
:1004B800BA01BA0A6C2A0130B5000310AD0DAE0DB1
:1004C800AF0DB00DB50B612A0130FF007F08BA07E8
:1004D800B01F6F2A702A5F2A0130B5000310B60DCD
:1004E800B70DB80DB90DB50B722A30083402031DCB
:1004F800872A2F083302031D872A2E083202031D7C
:10050800872A2D083102031C8A2A8B2A9A2A2D0849
:10051800B1022E08031C2E0FB2022F08031C2F0F46
:10052800B3023008031C300FB40236140130031034
:10053800B00CAF0CAE0CAD0CFF3E031D9B2A013076
:10054800BA02031DA82AA92A702A3908B000380857
:10055800AF003708AE003608AD0008008312031359
:10056800BF0069300A128A115D200A128A112830E8
:10057800FF007F0883120313940483160313910169
:10058800831203133F08840083130008BB00840A06
:100598000008BC00840A0008BD00840A0008BE00E8
:1005A80002300310BB0DBC0DBD0DBE0DFF3E031D7B
:1005B800D52A3E08A3003D08A2003C08A1003B083C
:1005C800A0000030A7000030A6000030A50064306D
:1005D800A4000A128A11B4230A128A11831203137F
:1005E8002308B0002208AF002108AE002008AD00A3
:1005F8000030B4007A30B3001230B2000030B100DD
:100608000A128A114A220A128A11831203132D0828
:10061800FF3EFF007F088316031393009401080030
:100628000B1D172B182B222B8B1E1B2B1C2B222B45
:100638007D080A128A114B200A128A1183120313A9
:100648000C1C272B282B362B831603130C1C2D2B45
:100658002E2B362B8312031357080A128A114B20AC
:100668000A128A11831203138C1C3B2B3C2B4A2B36
:10067800831603138C1C412B422B4A2B8312031322
:1006880056080A128A114B200A128A118312031380
:100698000C1F4F2B502B5E2B831603130C1F552B4F
:1006A800562B5E2B8312031350080A128A114B2013
:1006B8000A128A11770883120313FF0076088A004A
:1006C80075088400740E8300FE0E7E0E09000A125F
:1006D8008A11DE250A128A11762B0A128A11CC2574
:1006E8000A128A11A0300A128A1151250A128A1197
:1006F800003A031D802B812B712B831203132208D0
:100708000A128A1151250A128A1183120313210829
:100718000A128A1151250A128A110A128A11CC2545
:100728000A128A11A1300A128A1151250A128A1155
:100738000A128A11C1250A128A11FF007F08831242
:100748000313A3000A128A11B5250A128A110A1284
:100758008A11D5250A128A11831203132308080067
:10076800003083120313AC000030AB000030AA0045
:100778000030A900201CC12BC22BD92B2408A907A3
:10078800250803110318013E0319CB2BAA072608D5
:1007980003110318013E0319D22BAB0727080311D5
:1007A8000318013E0319D92BAC070130A800031028
:1007B800A40DA50DA60DA70DA80BDB2B013003106A
:1007C800A30CA20CA10CA00CFF3E031DE32B2308D5
:1007D800220421042004031DF22BF32BBE2B2C082A
:1007E800A3002B08A2002A08A1002908A0000800DD
:1007F800312C1530FF007F08A900102CFF30FF00B6
:100808007F08A800092C0130A8022808031D0D2C18
:100818000E2C072C0130A9022908031D142C152CB5
:10082800022C0130A4000030A5000030A6000030E2
:10083800A7002408A0022508031C250F242C252C1A
:10084800A1022608031C260F2A2C2B2CA2022708FB
:10085800031C270F302C312CA30283120313230807
:10086800220421042004031D3A2C3B2CFD2B0800F4
:10087800F300F2015E2CEF30FF007F088B05772C28
:10088800FD30FF007F08831203138C05772CFB30A3
:10089800FF007F08831203138C05772CBF30FF00FD
:1008A8007F08831203138C05772C1D30FF007F0807
:1008B800F207772C7308F000F1017108003A031968
:1008C800662C592C7008003A03193F2C013A031979
:1008D800442C033A03194B2C013A0319772C433A59
:1008E8000319522C592C0800003083120313A3005B
:1008F8000030A2000030A1000230A0000A128A11C4
:10090800FC230A128A11C530FF007F0883120313E3
:100918009F051F080030A3000030A2000030A1008E
:100928001E30A0000A128A11E7240A128A118312C3
:1009380003131F151F08AC0004300310AC0CFF3E56
:10094800031DA12C2C18A92CAA2C9E2C1E08AB0028
:10095800831603131E0883120313AA0008000A1241
:100968008A11DE250A128A11BE2C0A128A11CC2598
:100978000A128A11A0300A128A1151250A128A1104
:10098800003A031DC82CC92CB92C83120313220862
:100998000A128A1151250A128A1183120313210897
:1009A8000A128A1151250A128A1183120313230885
:1009B8000A128A1151250A128A110A128A11D5259A
:1009C8000A128A110800042D0130A4000030A50085
:1009D8000030A6000030A7002408A0022508031C48
:1009E800250FF72CF82CA1022608031C260FFD2C36
:1009F800FE2CA2022708031C270F032D042DA30297
:100A0800831203132308220421042004031D0D2D3F
:100A18000E2DE82C08000130FF007F088312031315
:100A2800D40702305406031D1A2D1B2D252D8316BD
:100A380003138701FF30FF007F0883120313870623
:100A4800D401FD30FF007F088C0508000034013414
:100A580040348034BF3401340034013430340A3433
:100A6800023400340234013404340034C734A0346E
:100A7800003407347E088A007F0882000A128A112F
:100A88003E250A128A118000840A04087D0603198B
:100A98000034FF0A0319FE0A422D83120313A00033
:100AA8000A128A11A8250A128A1183120313200830
:100AB800FF007F089300831603130C085F2D0800BE
:100AC8000134FF34FF340034003401340034063478
:100AD800FF34E8340334003400340034023418346A
:100AE80000340034831603138701FF30FF007F08AA
:100AF800831203138706FF30FF007F088706FE3046
:100B0800FF007F088C050800831203131E08CB0022
:100B1800831603131E0883120313CA0040300A12F7
:100B28008A113C240A128A110800831603138701CC
:100B3800831203131F15FF30FF007F088706FB3061
:100B4800FF007F088B0508008316031311081F395F
:100B5800031DAF2DB02DA82D1419B32DB42DA82D1C
:100B680008008316031391160A128A11A8250A127F
:100B78008A1183160313111608000A128A11A82570
:100B88000A128A118316031391150C08C92D08003F
:100B98000A128A11A8250A128A11831603139114BE
:100BA80008000A128A11A8250A128A11831603134B
:100BB800111508000A128A11A8250A128A1183162B
:100BC80003131114080005308A000408840A8207F8
:100BD80000340134023464008001840A04060319D5
:060BE80000340406F02DAC
:00000001FF
